:0C240D00010204081020408003020301BB
:10234D00C2AF53D0E7122484121DC93007031219EE
:02235D000F224D
:07247D0075D4A075A88822A8
:101DC900E59630E104D21B801EE59630E205122328
:101DD900A78017E59630E305121F37800DE5963089
:101DE900E005121E298006122213E4F596022484C6
:10221300759D05E4F5571224841223B81224847F94
:0A2223006E12211B12247D021FB170
:1023A7001224841223B812201D7520827FCA0200CE
:0123B7005EC7
:10201D00E4F5F275687D75697D756A01FF74A62F0B
:10202D00F8E4F674A82FF8E4F60FBF02F07570010E
:01203D002280
:101E2900E59630E4167571197F0E12211B43F320D4
:101E39007F1A12211B53F3CF12247DE5F354CA44B0
:0E1E4900C2FF12005E121D9753968E02227980
:101D970030032EE4F56BE5E430E00353E4FEE5E7BA
:101DA70030E01E53E7FEE56490241593F5E5E564FE
:101DB70090241793FFEF6006E4F5E51F80F743E7EC
:011DC700011A
:011DC80022F8
:101F370012248443C067759E6075F38112003612C0
:101F4700235FEF20E504EF30E6E675F301759E6049
:0B1F57007F6212211B12247D02221366
:03000300020026D2
:03002600C2A8323B
:03000B0002000AE6
:01000A0032C3
:0300130002002EBA
:03002E00C2AA3231
:03001B000221714E
:10217100C0E0C0F0C083C082C0D075D0081220FE7C
:0B218100D0D0D082D083D0F0D0E0326C
:0300230002004692
:03004600C2AC3217
:03002B0002004E82
:03004E00C2AD320E
:0300330002005672
:03005600C2AE3205
:0300430002218C0B
:10218C00C0E0C0F0C083C082C0D075D0181211223C
:0B219C00D0D0D082D083D0F0D0E03251
:03004B000221A7E8
:1021A700C0E0C0F0C083C082C0D075D01812112221
:0B21B700D0D0D082D083D0F0D0E03236
:03005300020006A2
:0400060053A9FB32CD
:03005B000221C2BD
:1021C200C0E0C0F0C083C082C0D075D018122138E0
:0B21D200D0D0D082D083D0F0D0E0321B
:030063000221DD9A
:1021DD00C0E0C0F0C083C082C0D075D018121447C3
:0B21ED00D0D0D082D083D0F0D0E03200
:03006B0002000E82
:04000E0053A9DF32E1
:030073000221F86F
:1021F800C0E0C0F0C083C082C0D075D01812155F8F
:0B220800D0D0D082D083D0F0D0E032E4
:03007B000200166A
:0400160053A97F3239
:1020FE00E4F594759355D55A11D20B755A143003D5
:0D210E0009E571D3940040021571D20C2236
:0F23B800122291122484122450E4F595021F8AF8
:10229100E4F5A8F5A9F5DCF5DDF5B8F5B9F5DAF55C
:0622A100DBF5DEF5DF2293
:101F8A00E4F59AF59BF59C759D05759E60F5A4F59B
:101F9A00A2F5A3F5A5F59E7580FF7590FF75B0FFB4
:071FAA0075A0FF43C00722F0
:092450001222D3121E850222A7FC
:1022D300E4FF745B2FF8E4F60FBF08F6E4F522750C
:0422E3002120F5249D
:0122E70022D4
:101E8500E4F553F5527892F618F6F565F564F57DA7
:101E9500F563F567F56BF56CF56DF56EF56FF5703A
:0D1EA500F571787EF678A476FC78A3F6221D
:1022A7007F12787FE4F608DFFC1224467F107893CC
:0522B700E4F608DFFC65
:0122BC0022FF
:092446007F1278AAE4F608DFFC1D
:01244F00226A
:07248400E4F5947593552265
:10235F001224841223128F4A122312E54AB507F072
:01236F00FF6E
:01237000224A
:1023120012248485C04B12248BE54BB5C0F2E54BE9
:032322005460FF05
:012325002295
:101FB100C2AF122484439E6075F301752001301B6A
:101FC1001375F34112201DD207D21BD219C2187FFB
:051FD100C212005E22B7
:03005E008FF322FB
:10211B00C2AF75D3FC75D4F053DAF7EF600E12240F
:0D212B0084E5DA30E3F853DAF71F80EF2285
:07248B000000000000002228
:0D003600000000000000000000000000229B
:1022BD0012003600000000000000000000000000C9
:0622CD00000000000022E9
:1037FB00020EE2000075F0A5C2AF759355E5962059
:10380B00E16230E228E520B44123B52420E521B460
:10381B004B1BE522B44916E523B4521101D5759E15
:10382B006075C07F9037FEE493645A60EF9037FB6E
:10383B00E493B402E7E4F5F0900000758107F5D04E
:10384B000237FB903FBA78207906E5F0B4A5FDE48A
:10385B0093F608A3D9F9E4F51DF51EF51F9037FF74
:10386B0093F52722114E741420C5B330C6B01470D3
:10387B00F7F59EF8741475C0DFD8FE30C6A075C07E
:10388B00BFD8FE20C59875C0FFD8FE30C590B40ACE
:10389B0002F51DB41103751E09B40602F51F7593CD
:1038AB0055D5E0D2D8FE20C50520C60221A67581CC
:1038BB002775C09F7512057D377CFE745AB1BEC249
:1038CB00C5D1C5D2C5D1C530C5F575935575812701
:1038DB00E4F5D0759E6075C07FE596540A600A7555
:1038EB00F301114ED1CF75F3C2513075F3CA7594F4
:1038FB0003E520B441FD652470FE20AFFD759355A3
:10390B00E5DB30E03B53DBFEE5EF5418701C7153E5
:10391B00BB082043EF0453EFFEE5EF20E41571E500
:10392B00516420330E53EFFB01FC20E40E43EF04F4
:10393B0053EFFE43EC0243EF0271F153EFFB01FC3B
:10394B0030E10553DBFD211330E31F53DBF753EF5E
:10395B00FB20300471612170E510B40106E50AF516
:10396B00F2600071F153EFFB01FC30E42C53DBEF01
:10397B00E5EF20E41443EF04203104E5EE700E5321
:10398B00EFFE71F153EFFB01FCD233213E71534338
:10399B00EF0453EFFE71AD218F01FCC2C67594038A
:1039AB00758127513075120575C0FF75935520C56C
:1039BB00FA30C607C2C620C5EF21C174025122B42A
:1039CB003310511DFC511DFDBD5ADDEC70DAF11B9E
:1039DB0021B3B4551679087A08511DF709DAFA792B
:1039EB00087A08E7B1C409DAFA21B3B466FD913756
:1039FB0070FE7A08D18D759355D375C0FF30C5FD18
:103A0B0020C5FD3392C6C370F430C5FDC2C6DAE4DF
:103A1B0021B375C0FF740130C5FD20C5FDA2C633AF
:103A2B0050F5C2C622E4F596F5F2F5267818F6D8CD
:103A3B00FDF5A8F5A9F5DCF5DDF5B8F5B9F5DAF581
:103A4B00DBF5DEF5DFF595F59AF59BF59CF59D1409
:103A5B00F580F590F5A0F5B0227B00E5087012D249
:103A6B0030E509B4050474014187B4095DF52241C1
:103A7B008620E759D230E509B40A09E48BEBF5103F
:103A8B0043EC0122B40943E508B4213EE50BB40233
:103A9B000474024187B403329100B4050CBE062AAC
:103AAB00BF002774047E044187B4060CBE021BBF03
:103ABB00081874067E004187B4410FB5250C913769
:103ACB0060021161B11974084187D23322D23120BF
:103ADB00E534E509B406F3E50B30E502941B60EA27
:103AEB00B4080050E523F8903FAA93FC7D3FE8040F
:103AFB0093FE7F00E50F7009C3EE950E4003E50EB4
:103B0B00FE7512416192B4A1C1D509BEE50BB40398
:103B1B00B99100B40519BE06B1BF00AE7A04E51326
:103B2B00B452A77B028512EA75EA721E1E6185B438
:103B3B00060ABE0295BF08927A066129B4418BB57D
:103B4B0025889137708461927808E5EEF9FB600562
:103B5B00A6ED08D9FB22E5106010EF7008EE600BA4
:0D3B6B00B40802D234E510B405092210346C
:103B780001227B004186B4070E7A087B0071FB7135
:103B88009E912E74074187B409E37198740941879F
:103B9800B1187A087B00EE4F600AEA6007D18DF50C
:103BA800EA0BDAF222E510B40220E509F4551130E7
:103BB800E21453F3F7759E6075C07F11615130753B
:103BC800F301D1C5013885091122B40406910D7B92
:103BD800004186B4060281D7B408EEA101E453DBA4
:103BE80067F5E953ECFD53EFFDE4F510F512F52602
:103BF800D23722AC14AD1522AC0CAD0DAE0EAF0F02
:103C0800E50AF51222E508B405FAE509B477028158
:103C18001BF513B4521E91376008E50BB4FC0C7504
:103C28000A00AC0AAD0B8C148D1522E4F51322E5BD
:103C38002764A522B45706913770F0812AB4560933
:103C4800912AEC4D70E5F51822B47727E513B4579F
:103C5800B371FB7A04790AEE4F600BE513B4570889
:103C6800E7B1C409DAF1812ED18D67600474EE42A0
:103C78001880F0B44116E50AB44B11E50BB4490CB1
:103C8800E50CB45207E50DB44102F52554DFB445FF
:103C98003DE50AB4450D630B4F630C4C630D43912E
:103CA800CCE11BB45A087CFE7D37E50BA1BEB4A558
:103CB80007B5271A7CFF81B0B4FF069137700FA1B2
:103CC8002CB4050A850B1D850C1E850D1F2222E5C7
:103CD8001354FEB4561F103708EB7908FA71FB81AC
:103CE8005FE5096420B5130DE508B40608790AEB09
:103CF800C3940250E775130022EB6014B408004027
:103D0800027408FA7908EE4F6006E7B1C409DAF6DA
:103D180022913770FBEDB45AF7ECB4FE047455A148
:103D28003CB4FF0474AAA13C543CF5F775BE007579
:103D3800BF0074E6F5B3759355751C05E512B40517
:103D480055851CB4751C0A851DB5851EB6E5B3B42A
:103D5800E61AE5F724C8502B8030E5BEB4030050BE
:103D680022048380023800B5BF20A18BB46E14E50D
:103D7800F760E724C8500C24F9500F700DE5BE24F5
:103D8800415007851FB700000000E4F5B3F5B4F50E
:103D9800B5F5B6F5B722B40602A149B441F7A14971
:103DA800EE70011F1E227D007C017438B1BE7400C4
:103DB800B1BE7C007402F5BF8DF7C110F5BFE512E6
:103DC800B44102C108BDFC0A75F73FEC44C0F5BE1A
:103DD800C112ED700FECB40300502575F73724FBC2
:103DE800F5BEC112B4FF09303016EC20E712C11934
:103DF800B43800501CB43708BCFA004003BCFA11B0
:103E0800EDB440005026F5F78CBE746EB13C75F7E2
:103E180000B1A8C1B7B4FE07ECF8E5BFF6C119B404
:103E2800FD08ECF875F700E5BFF2C119B4FFE6EC40
:103E380033745A4001C48CBEC114E583700CE5820A
:103E4800B40300504B9037FBC18AB4FF0A303140AD
:103E5800E58220E73BC186B4FC1575833FEC30E76B
:103E68000644C0F582C1895403FC2418F8C1ADB4D6
:103E78003800500AB43719E582B4FA004012903776
:103E8800FAE493C1B7B1A88C828D83E512B441AA34
:103E9800E583B440005004E493C1B7B4FF02C1B64F
:103EA800B4FE05A882E6C1B7B4FD04758300E00C32
:103EB800BC00090DBDFD011DBD00011D22D1C7D8E3
:103EC800FE759355D9F9227806E4F6D8FD7F40753A
:103ED8001205D18D29F950050ABA00010B759355C1
:0D3EE800BD40EF891B8A1A8B19E94A4B6017
:103EF50006BB3F06BAC0037527A522C2AF53F3F729
:103F0500759355758127B45AFDE4F5D0F5F3759E83
:103F15006075C07F01EA74381454FCFAB130EA7058
:103F2500F7B1AEB1AEC1CF12011001000000080318
:103F35000620100103000000010403090409022200
:103F450000010100A032090400000103010100097C
:103F550021100100012248000705810308000A0518
:103F6500010906A1018507050895087501190129AB
:103F7500089102C00600FF0901A10185051500256C
:103F8500FF1901290575089505B102C00600FF094D
:103F950001A1018506150025FF1A01002A010875F2
:103FA50008960108B102C02C1242223E044B095D5D
:103FB5000754096448414B49524100000000000084
:103FC50000000000000000000000000000000000EC
:103FD50000000000000000000000000000000000DC
:103FE50000000000000000000000000000000000CC
:0B3FF5000000000000000000000000C1
:03000000023800C3
:100EE200000000E59620E10B20E20E20E30B20E05B
:0F0EF20008800078FFE4F6D8FD7581DA020F3C26
:1020A10002A00003A001AA02A00203A0020002A054
:0F20B1000302A00503A0030003A006EEA0081A77
:10203E0001CB0001CD0002CE000002D0000001C98C
:0A204E000101CA0001C80001CC0125
:10186F001213549020BFE493FF227A2079A2902084
:10187F00A17BFFE493F54F227B007A0079BC754F73
:10188F00012278D2EFF6D2AF78A3227BFFE493F553
:10189F004F22AB40AA41A94290000312135490006B
:1018AF000422D2AF75E60643E701E4F566F571222F
:100A740078A4E6240F6075147003020B0524FE703D
:100A840003020B18147003020B4E147003020B8A3A
:100A9400147003020B2B24FA7003020B8A240D60DA
:100AA40003020B95C2AF12171C78D2EFF6D2AF64D3
:100AB400FA703178BCE678A3602676E0C2AF1218EB
:100AC400727BFF7A2079BD754F02121AD412187204
:100AD4007B007A00794A754F0C12166CD2AF8008ED
:100AE40076D0800478A376D078A476F1C2AF1215BC
:100AF40003121891BFFA0476E1800276D178A476C5
:100B0400F2C2AF121613121891BFFA0476E28035BE
:100B140076D28031C2AF121D64121891BFFA0476E6
:100B2400E4800276D4801EC2AF1218727A2079B69D
:100B34009020B5121880121AD4121891BFFA0476B4
:100B4400E7800276D778A476FC22C2AF121B1BEF93
:100B540064FA70279020BF93FF7A2079BA9020B965
:100B640012189A121AD4BFFA1078BCE678A3B4010A
:100B74000476E5800A76D58006800078A376D57859
:100B8400A476FCD2AF22E478BCF678A476FC78A3F1
:010B9400F66A
:010B9500223D
:10171C00439D05D2B37F0A12211BC2B37F1612213F
:10172C001BE478BCF678D3F6121872121879121AD8
:10173C00D478D4EFF6BFFB02801A121872121887F5
:10174C0012166C78D4EFF6BFFB02800878BCE6600A
:10175C00037FFA227F0512211B78D306E6C3940877
:04176C0040C67FFBF9
:011770002256
:101503001218727A2079A59020A412189A121AD46C
:1015130078D3EFF6BFFB037FFB227F0512211B125B
:1015230018727BFF7A2079A99020A8E493F54F12D3
:101533001AD478D3EFF6BFFB037FFB221218721283
:10154300188712166C78D3EFF6BFFB037FFB227864
:0B155300BCE6645560037FFB227FFABA
:01155E00226A
:101613001218727A2079AC9020AB12165EBFFB03CE
:101623007FFB227F1912211B1218727A2079B09046
:1016330020AF12165EBFFB037FFB22121872121833
:101643008712166C78D3EFF6BFFB037FFB2278BCBF
:0A165300E6645560037FFB227FFA76
:0F165D00227BFFE493F54F121AD478D3EFF622D5
:1011A3008B408A418942900001121327242F602427
:1011B3001460462402706490000274A012135490C9
:1011C3000003741412186FE92402F9E43AFA754F14
:1011D30004121AD474341218A174A0121354900078
:1011E300057418121354122326AB40E5422403F965
:1011F300E43541FA7D03021EDF12237174A0121835
:10120300A1740412135490000574EE12186FE924AC
:0C12130003F9E43AFA754F03121AD422D2
:101D64001218727BFF7A2079B39020B2E493F54F76
:101D7400121AD478D3EFF6BFFA1612187212188713
:101D840012166C78D3A60778BCE6B455037FFA2202
:021D94007FFBD3
:011D9600222A
:101B1B00E478BCF678D3F6121872121879121AD42C
:101B2B0078D4EFF6BFFB02801A12187212188712C4
:101B3B00166C78D4EFF6BFFB02800878BCE6600326
:101B4B007FFA227F0512211B78D306E6C394084047
:031B5B00C67FFB47
:011B5E002264
:10232600439D0512248B539DFEC2B01222BD539DC0
:04233600FBC2B22212
:10237100539DFEC2B012248B439D041222BD439D86
:02238100012237
:1013E500E4F551FEEF30E705439D018005539DFE71
:1013F500C2B0000000000000439D04EF25E0FF009F
:101405000000000000000000000000539DFBC2B278
:101415000EBE08D000000000000000000000000023
:10142500439D01000000000000439D0412248BA28F
:10143500B0E433FD539DFBC2B2BD01037FFB227FA8
:01144500FAAC
:011446002283
:10177100E4F551439D01FE439D04E55125E0F551FA
:10178100A2B0E4334251000000000000000000005C
:101791000000539DFBC2B2000000000000000000E9
:1017A1000000000EBE08D0EF6005439D0180055387
:1017B1009DFEC2B012248B439D0412248B539DFBCA
:0417C100C2B2AF51B0
:0117C5002201
:101AD4008F4B8B4C8A4D894E122326E54B25E0FF14
:101AE4007D011213E5BFFA23AF4F154FEF6022AB10
:101AF4004CAA4DA94E12130EFF7D011213E5740179
:101B0400254EF54EE4354DF54D80DD1223717FFBF6
:071B1400221223717FFA2267
:08166C008F4B8B4C8A4D894E17
:10167400122326E54B25E04401FF7D011213E5EF1B
:1016840064FA701CF550E54F14FFE550C39F5009F0
:10169400E4FF1216B0055080ED7F011216B08006EB
:0B16A4001223717FFB221223717FFADA
:1016AF0022121771AB4CAA4DA94E8550827583003B
:0516BF00EF121354229C
:101EDF008B438A4489458D46AF461546EF601CAB50
:101EEF0043AA44A94512130EFF7D011213E5740195
:0C1EFF002545F545E43544F54480DD221E
:101C1400E478BDF6FF74BE2FF8E4F60FBF06F6C2F3
:101C240022E478CDF678CBF678C8F6C2AFF5E2F5C3
:101C3400E2FFE4F5E20FBF06F9D2AF75E30843E42F
:091C440001856869E4F566F5719B
:011C4D002274
:10181B0078C8E6B421047D4F803D78C8E6B4220435
:10182B007D50803378C8E6B423047D51802978C875
:10183B00E6B424047D52801F78C8E6B425117D02DE
:10184B00E4FF12239512195E1222BD7D2B800878BE
:10185B00C8E6B4260A7D2BE4FF1217C612195EE404
:04186B0078C8F62221
:10007E00E4F54A78CDE6D39400401716E6701B7867
:10008E00C8E6FF94214010EFD39426500A12181B95
:10009E00800878C8E66003121C14120E3E20234618
:1000AE0078C9E6704178CC06E6C394144038E4F67D
:1000BE0012046BBFFB02801A7D017F051213E5123D
:1000CE00237112248B1223267D017F211213E5BF8B
:1000DE00FB05D2AF02237112248B7F011217718F91
:1000EE004A122371D2AFE54A64AA6003020405786E
:1000FE00C9E6600302040512046BBFFB06122371EE
:10010E00D2AF2212248B7D017F551213E51223717B
:10011E001200367B007A0079D4754F067F101216C6
:10012E006CBFFB03D2AF22D2AF78D4E6FFB4500639
:10013E00E478CEF608F6302403020405EF6450602E
:10014E000302040578D8E6C4540F78D3F670030280
:10015E00031178D5E654706003020311C2AF78D351
:10016E00E6FF64086012EF6409600DEF640C60082E
:10017E00EF640D600302022278CBE6FFD3940040B9
:10018E0008EF64216003121C1478CB762178CD76AB
:10019E006478C8E6600302030E78D3E66408702123
:1001AE0078CAE670107D0412040678CA760178C803
:1001BE00762602030E7D4F12044878C8762102037C
:1001CE000E78D3E66409702678CAE670157D04129F
:1001DE0004787D0212040678CA760178C876250264
:1001EE00030E7D5012044878C8762202030E78D38F
:1001FE00E6B40C0A12043D78C8762302030E78D3B7
:10020E00E6640D600302030E7D5212045178C87627
:10021E002402030E78D3E6FF64016005EF640270DA
:10022E004478CAE66007121C14E478CAF678CBE666
:10023E0070097D0112047878CB7620C2AF75E50186
:10024E00E478D2F6E4F5E578D206E6B403F678D390
:10025E00E6B4010575E501800375E5FFE4F5E512E9
:10026E0018B102030E78CBE6600302030E78D3E6D4
:10027E00B4030A12041978CB760302030E78D3E680
:10028E00B4040A12042B78CB760402030E78D3E65C
:10029E00B4050D12046312043D78CB760502030EED
:1002AE0078D3E6B4070912041978CB760680517814
:1002BE00D3E6B4060E1204637D0712045178CB7692
:1002CE0007803D78D3E6B40B0912042B78CB760E5B
:1002DE00802E78D3E6B40A127D087F011223957D15
:1002EE000512048178CB7610801678D3E6B40E1002
:1002FE007D087F011223957D1612048178CB760F2F
:10030E00D2AF2278CBE6FFD3940050030203ACEFBA
:10031E00B4200A7D0112045AE478CBF62278CBE69B
:10032E00B4210C7D0412045AE478CAF608F6227839
:10033E00CBE6B40302801878CBE6B40402803D7895
:10034E00CBE6B405047D51803F78CBE6B406047D40
:10035E002B803578CBE6B407047D07802B78CBE66F
:10036E00B40F137D08E4FF12239512195E7D16E477
:10037E00FF1217C6802178CBE6B40E047D048008E8
:10038E0078CBE6B410117D05E4FF1217C612195E84
:10039E007D08E4FF122395E478CBF602195EC2AF16
:1003AE0075E50178D5E6FFC45403F5E508E6F404D7
:1003BE00F5E508E6F404F5E5E478D3F6EF5470704D
:1003CE002E78D8E6FF5407602678D376FFEF30E319
:1003DE0002760178D5E630E70CE4F5E578D3E6F45D
:1003EE0004F5E5800F78D3E6F5E5E4F5E58005E460
:0703FE00F5E5F5E51218B169
:10040500227F0112239512195E7D2B7F011217C6DB
:1004150012195E227D087F011223957D2B7F011223
:1004250017C612195E227D087F011223957D047F70
:10043500011217C612195E227D517F011217C612CD
:10044500195E227F011217C612195E227F0112174B
:10045500C612195E22E4FF12239512195E227D0849
:100465007F0112239522C2AF1223267D017F201220
:1004750013E5227F0112239512195E227F011217BF
:05048500C612195E2201
:100E3E00E478DAF678CF06E618700106D378CFE6B6
:100E4E00946818E69442405B78C9E6705678CEF600
:100E5E0008F6C2AF1223267D017F201213E5EF6440
:100E6E00FA70277D017F601213E51223711200368E
:100E7E001223267D017F211213E5BFFA0B7F01128B
:100E8E00177178DAA6078002800012237178DAE6ED
:100E9E006455600D78C97601D2B3539DFAC2B0C2C3
:100EAE00B2D2AF78C9E6B4012278D106E618700145
:100EBE0006D378D1E694DC18E694054016C2B3D278
:100ECE00B0D2B2439D05E478C9F622E478D0F60894
:030EDE00F6C2B3A6
:010EE10022EE
:101B5F001223267D017F201213E5BFFB02801A7D21
:101B6F00017F1D1213E51223711200361223267DF9
:101B7F00017F211213E5BFFB08122371E4787EF673
:0E1B8F00227F01121771787EA60712237122A1
:10048A001803530049004E004F0020005700450052
:10049A0041004C00540048000004030904200348AA
:1004AA0000410049004C00550043004B0020004326
:1004BA00004F002E002C004C0054004400001A0388
:1004CA0055005300420020004B00450059004200ED
:1004DA004F004100520044000058572D4E3134302D
:1004EA00315F383335305F36384638332D55532D22
:1004FA0048312D30352D3030001201100100000036
:10050A00088A250C0000010102000105010906A163
:10051A0001050719E029E7150025017501950881EC
:10052A0002950175088101950375010508190129CC
:10053A000391029505750191019506750815002626
:10054A00FF00050719002AFF008100C00501090202
:10055A00A10185010901A100050919012905150053
:10056A002501750195058102750395018101050132
:10057A000930093109381581257F750895038106E7
:10058A00050C0A380295018106C0C00601000980DF
:10059A00A10185022501150075010A81000A820060
:1005AA000A83009503810695058101C0060C00099E
:1005BA0001A10185032501150075010AB5000AB6D6
:1005CA00000A6F000A70000AE2000AA2000AE900A3
:1005DA000AEA00950881020A83010A94010A86013F
:1005EA000A88010A8A010A92010AB7000ACD00950F
:1005FA000881020A21020A23020A24020A25020A9F
:10060A0026020A27020A2A020AB10295088102C0B2
:10061A000501090CA10185091500250109C69501E5
:10062A007501810675078103C00600FF0901A10152
:10063A008506150025FF1A01002A0F047508960F72
:10064A0004B102C00600FF0901A1018505150025B4
:10065A00FF1901290575089505B102C009023B0079
:10066A00020100A03209040000010301010009216E
:10067A00100100012241000705810308000A09044C
:10068A0001000103000000092110010001221001EC
:10069A000705820308000AFF0F81FF15B9FF241915
:1006AA00FF19F9FF2419FF20DFFF0B96FF2419FF1A
:1006BA002247FF1FFBFF1EB2FF1CC2FF2419FF24A3
:1006CA0019FF129AFF19ACFF1E57FF2419FF2419AC
:1006DA00FF2419FF2419FF2419FF1013FF16C4FF62
:1006EA001DF9FF2498FF249EFF2459FF109CFF2325
:1006FA00C7FF23D6FF2498FF2498FF2425FF243020
:10070A00FF24A4FF24AAFF2498FF205FFF1CF8FF00
:10071A0024B0FF24B6FF24BCFF2462FF24C2FF24B6
:10072A00C8FF0066FF246BFF24CEFF006EFF24740F
:10073A00FF24D4FF1D2EFF24DAFF2498FF2383FF12
:0E074A002498FF2498FF2498FF1C4EFF14A64D
:100D950053DBEFD213AF74EF75F003A42410F58283
:100DA500E43407F583740193FA740293F922757597
:100DB5000275EB0143B91075E90643EC012275751F
:100DC50001E4F5EB43B90875E90143EC01228556C9
:100DD50082855583E493757700F57875730722143A
:100DE500F5828C83E493F5EA0F22C3E57A9408E54E
:100DF5007994002275760874F8257AF57A74FF35AA
:100E050079F57922F583740193FA740293F9021343
:100E150076E493427B75740F757501E42243EF0404
:100E250053EFFE22E56245614560220556E556AC65
:090E350055227B007A00795B2252
:0D23F300E575C394064003E4F575AF75224F
:1020C0008F76E4FDFCEFFBC3ED9B7480F86C9850B9
:0E20D0000D745B2DF8A6ED0DBD00010C80E730
:0120DE0022DF
:1022E800200302D322E55B64A16008E55B64A26079
:0522F80002D322C32205
:1022FD00200302D322E55B64216008E55B64226064
:05230D0002D322C322EF
:06249200E4F575F5B92226
:101FD60043C067E4F59EF5A3F5A2F5A5F566F57190
:101FE60085F354C2AF53968E122484438702758EAE
:051FF60055000000226F
:10155F00E4F549E5DF30E103E4F5DFE5DF30E246AE
:10156F0053DFFB1224840566AF66EFC3956F4033DC
:10157F00300324E56B7002F56BE4F59543F310E54A
:10158F00A4B4FF0D75A0FFE4F580F59075B00D8044
:10159F0003122279121FD6E4F59543F31012227924
:0915AF00121FD6D2AB22E4F5DFD5
:0115B8002210
:10112200C2AFE5EF54186007E5EF20E46E8066E594
:10113200EE64087060AFEE1220C0120E22E5EF20BE
:10114200E459E4F5B953DB67F575F5745322F0F50C
:1011520073F5E9F566E55B546024E0601B242070BA
:1011620037E55CC3940D5033AF5CEF75F003A424F4
:10117200A1F582E434068015E55CC3940C501CAFE3
:101182005CEF75F003A424C8F582E43406120DA8BE
:101192001213768006120E2212241953EFFBD2AFDD
:0111A200222A
:100F8100E5616402600302100FE562600302100F65
:100F9100E55B247F601414602A2402706FE5A4705D
:100FA10004F5EA804675EA028041E5606002805EF0
:100FB100E55F1460050470098021300302801C8004
:100FC1004D804BE56060028045E55F2480600C1434
:100FD100600E14601B248270318000E4F5EA801CED
:100FE10030030BE5E45402C313F5EAE4800E801EDE
:100FF100300315E5E75402C313F5EAE4F5EA757524
:101001000275EB02120DB9228004800280001224C5
:021011001922A2
:1015B900E55E7052E55B24FE601024027046E55D2D
:1015C900B401057574038032803CE560455D703275
:1015D900E55F2480600F1460111460182482702064
:1015E90075740480157574058010300305757406CB
:1015F9008008801230030775740A120DC322800611
:0A16090080048002800012241922E0
:1019F900E5624561455E703FE55B700CE55DB401EC
:101A0900057574078029802FE55B64027027E560FE
:101A1900455D7021E55F547F601B300318E55FB4B5
:101A290081057574088008E55FB4820775740B1227
:0B1A39000DC32280028000122419223D
:1020DF00E5614562455E455B7011E55DC3948050D7
:0F20EF000A855D72757401120DC3221224192225
:100B9600E55B64806009E55B64816003020CA6E5A1
:100BA6005E546024E07003020C3224206003020CC1
:100BB600A4E55BB48103020CA6E55E24FE6019146D
:100BC600602824027064757700757812755505756E
:100BD6005603757301020C9D75770075783B755544
:100BE60006755666757302020C9DE55D1460161453
:100BF600601F2403602714702F7555047556A312C1
:100C06000DD3020C9D7555047556A7120DD3020C13
:100C16009D7555047556C8120DD3020C9D75550465
:100C260075568A120DD3806F80768074E5607005E4
:100C3600E55BB480028069E55F702DE55E24DE60C9
:100C460014047022757700757809755506755678FF
:100C5600757303804275770075784175550575562D
:100C66001575730480318038E55F6401702EE55E8A
:100C760024DE6014047023757700757809755506AF
:100C8600755691757305800F7577017578107555D2
:100C96000575565675730602121F80048002800081
:040CA60012241922D9
:10224700E561B40110E562700CE55BB48007856752
:09225700EA120DB322122419222F
:101FFB00E5624561455E455B7014E5F26010E55D99
:10200B006005E55DB40107757402120DC32212243D
:02201B00192288
:101EB200300326E56245607020E5616401701AE531
:101EC2005B64817014E55F70028006E55FB4010710
:0D1ED200E4F5EA120DB3228000122419225B
:101CC20030032F120E29455E455D7026E55B6401E7
:101CD2007020E55F7008757409757501800CE55F09
:101CE200B4010D75740C757501E4F5EB120DB92292
:061CF200800012241922FB
:10129A001222E8406BE560701DE55F7019E55D702C
:1012AA0015E55EB4020EE5575407F5EA7575027541
:1012BA00EB018020804AE55D6405701CE55EB4039D
:1012CA001775EA0578A3E6F5EA78BCE6F5EA7575D6
:1012DA000275EB03120DB922E55DB40621E55EB491
:1012EA00031CE561B41017E562B404127555047560
:1012FA0056E375770075781F75730802121F800010
:04130A00122419226E
:1019AC001222E84044E5624560703CE561640170D8
:1019BC0036E55F7009E55D70308568EA8021E55F8A
:1019CC006401702190241593B55D0778A6E6F5EABD
:1019DC00800D902416E493B55D0978A7E6F5EA121C
:0D19EC000DB3228004800280001224192215
:101E57001222E84025E5624560701DE56164017066
:101E670017E55F7005856AEA8008E55FB4010785B5
:0E1E770070EA120DB32280028000122419229C
:101013001222FD5003021098E560707CE562703483
:10102300E5619408502EE55F54FE7026E55D455F4B
:10103300700AE55EB402057574128037E55DB40588
:101043000FE55EB4030AE561B406057574168023E3
:1010530080438041E56264047020E5616410701A86
:10106300E55F64017014E55DB4060DE55EB4030845
:101073007574177575048015801BE55F7015E55D44
:10108300700FE55EB4020A757412757505120DC60C
:09109300228002800012241922BF
:1016C4001222FD404F120E297048E55F7009E55D56
:1016D400704275740D8010E55F64017033E55D70D0
:1016E4000B437B0375740F757501801E902415E4FC
:1016F40093B55D0890240D120E16800E902416E406
:1017040093B55D0A90240E120E16120DC7228004A2
:0817140080028000122419225A
:101DF9001222FD4027120E29455E701EE55F70080C
:101E090075740E757501800CE55FB4010B7574105E
:101E1900757501E4120DC72280028000122419226F
:0624980053EFFBD2AF225E
:06249E00120D9A021376F4
:0924590043EC0253EFFBD2AF2269
:10109C00E57A45796070120DEF4005120DF9800864
:1010AC00857A76E4F579F57AE576604FE573604BF1
:1010BC00E57364087031E57A4579702BFFE5762489
:1010CC00FEFEEFC39E500C120E3070020555120D31
:1010DC00E480EA787EE6FEC4540F2430F5EAEE5440
:1010EC000F2430F5EA8014E4FFEFC39576500C1210
:1010FC000E3070020555120DE480EE8576EB120D64
:10110C00B92012118008301109C211E4F5EB43EC3F
:05111C00012243EC027A
:0111210022AB
:0F23C700E5DB30E406120D950213761224922204
:0F23D600E5DB30E406120D9502137612249222F5
:0B24250053DBEFD213E4F573022492A6
:0B24300053DBEFD213E4F5730224929B
:0624A400120D9A021376EE
:0624AA00120D9A021376E8
:10205F008572F2E4F56753E4F753E7F7E5F26008AA
:10206F005320F043208480065320F0432082022423
:01207F0092CE
:101CF800855D67E567601453E4FD43E40C53E7FD35
:101D080043E70C5320F0432088801853E4F753E747
:101D1800F7E5F260085320F043208480065320F052
:061D280043208202249218
:0624B000E4F5A4022492F1
:0624B60053EFFD02249229
:0624BC0053ECFD02249226
:0924620053E4FD43E40C02249252
:09246B0053E7FD43E70C02249243
:0624C20075A4FF02249244
:0624C80043E40E02249221
:0624CE0043E70E02249218
:03006600022492DF
:03006E00022492D7
:09247400855E68855E6902249210
:101D2E00E57B5403FFBF0314E4FF74A62FF8A65EF1
:101D3E0074A82FF8A65E0FBF02F08017E57B30E087
:101D4E000A78A6A65E78A8A65E800878A7A65E7812
:061D5E00A9A65E0224921A
:0624D400855D6A022492FE
:0624DA00855D70022492F2
:10238300E575B4040CE55B5407F5573013031224C9
:02239300922294
:101C4E00E55B64057031E55CB47518E560455F458C
:101C5E005E455D7022C2AF745A75F0A512001ED299
:101C6E00AF8014E55CB4A00678A3760B8009E55C22
:0A1C7E00B4A10478A4A65D0224922C
:1014A600E55BB4061CE55DB4CC17E55EB4CC12E58D
:1014B60061B4CC0DE562B4CC08120E371211A380CC
:1014C60038E55B64EE702AE55D64CC7024E55EB4B5
:1014D600CC1FE55FB4CC1AE560B4CC15E561B4CC9D
:1014E60010E562B4CC0B120E371211A3E4F5758029
:0D14F60008120E377D08121EDFE4F5B92242
:10213800C2AF43EF041223F3EF75F003A424ECF5C8
:0D21480082E43406120E0953EFFBD2AF22E1
:10144700C2AFE5EF30E402802943EF04E5EE602701
:10145700E5EEC39409400E120E2243EC0243EF025D
:10146700122492801DAFEE1220C053EFFEE5EF303D
:10147700E41553DBF7800B53EFFEE5EF30E4085339
:10148700DBF753EFFB80121223F3EF75F003A4246D
:0F149700FEF582E43406120E0953EFFBD2AF22AA
:10121F00AF62EFFEAD617C00E42DFFEC3EFE757515
:10122F0002F5798F7AE573600FC3E5789FE5779EB6
:10123F00500685777985787A120DEF400DE5756444
:10124F00026005E575B404020575E57A540770046C
:10125F00D2118002C211120DEF4005120DF9800854
:10126F00857A76E4F579F57AE5766018E57360149A
:10127F00E4FFEFC39576500C120E30700205551235
:0A128F000DE480EE8576EB120DB938
:011299002232
:0C24190043EC0243EF02E4F575F5B92234
:04001E00023F00227B
:10190F0012233A122484122400200305E4F52180C7
:10191F00F212195E121A44C2B7787EE6B4F109E4E6
:10192F00F6C2AF121B5FD2AF78A3E6700512007E2E
:10193F008003120A74300B0AC20B12243B121F626F
:0F194F0080C1300C05C20C1218BF12215580B494
:10233A00755A1475D3CE53DAF753DAFD75D4A075EE
:03234A00A888223E
:0D24000043DD0643A95B43A88053D0E722CB
:0B243B00E5686006D56903856869222A
:10215500E57DB5630BE4F563F57D30090EC2092213
:0C2165000563E563540FF5631207582270
:101F6200539EF8E55730E006C2C1D21A8004D2C1AE
:101F7200C21AE55730E104C2C08002D2C0E5573030
:081F8200E203C2C222D2C22216
:1009140000000000000000000000000000000208C9
:10092400024000000000000000000000000002047B
:100934000000000007000139010401160400000052
:1009440000000106011B01070114012B011E0135E2
:10095400000001090108011A011F012006000929EC
:100964000119010A011701150121012206010602DC
:100974000000010B0A00011C01230A0106030604FE
:1009840000000A020A030A040A050A060605060606
:1009940000000A070A080A090A0A000007010607F4
:1009A4000A0B0A0C012F0000012D000007020703A7
:1009B40001050136013400000000012E0000070487
:1009C4000000000001110A0D0000000000000000FA
:1009D400012C0A0E00000000013000000705000091
:1009E40002020000000000000000000000000220DD
:1009F40007060707000007080128014C012A000028
:100A040002010000000000000000000000000131AD
:100A140000000000000000000000000000000000D2
:100A240000000000000000000000000000000000C2
:100A34003AC13CB73BFE3EB43DB640B13FBF41B0C6
:100A44001D644248444643494553504A4F4D514E14
:100A5400524B185C245F0E5A0D590C5D25602661BB
:100A64000F5B1355125E27541062335637633857A1
:062058000111000110005F
:101A8C00F583E493FDA20AE433FF22A20AE433FFB8
:101A9C00AD4A22E54A25E02445F582E4340AF58373
:101AAC00E493FD22E54A25E02457F582E4340A222A
:101ABC00E54A25E02435F582E4340A22E54A25E09E
:081ACC002444F582E4340A22EF
:1007580074932563F8E6FFC3949040030209137568
:10076800F002EFA42414F582E5F03409F583E4934C
:10077800F54B75F002EFA42415F582E5F03409F580
:1007880083E493F54AE54B7003020913122080E5D0
:100798004BB40409300A04D2268002C226200A0378
:1007A800020861E54BB40203020866E54BB4011088
:1007B800E54A64536005E54AB43902D22302087E4B
:1007C800E54BB40303020889E54BB405030208941A
:1007D800E54B6406702230261C121ABCF583E4939C
:1007E800FDB4FE09302403C22422D22422A20AE442
:1007F80033FF02088C0208A9E54B640770193026FC
:100808000B121A9FB45302D2230208B9121AC8F560
:1008180083E493FD0208B9E54B640A702930260B7E
:10082800121AB0F583E493FD0208B9E54A25E030D1
:100838001A05121AB480072456F582E4340AF5839F
:10084800E493FD0208B9E54B64096003020913301B
:100858002605A20A02090C801DE54BB40206121AED
:1008680097022395E54BB40113E54A64536005E507
:100878004AB43902C223121A970208FBE54BB403A3
:1008880006121A97021B9DE54BB40506121A970229
:100898000910E54B64067020121ABC121A8C121B40
:1008A8009DE54A25E02434F582E4340AF583E4938F
:1008B800FDA20AE433FF803BE54B64077018121A67
:1008C8009FB45302C223A20AE433FF1217C6121AB6
:1008D800C8121A8C801DE54B640A701A121AB012DD
:1008E8001A8C1217C6E54A25E02456F582E4340A24
:1008F800121A8C0217C6E54BB40910121A97121770
:0B090800C6A20AE433FF7D0212222D7C
:0109130022C1
:1017C600EF601FE4FE74BE2EF8E6700974BE2EF8B4
:1017D600A605D2222274BE2EF8E66D60370EBE062E
:1017E600E422E4FE74BE2EF8E66D7024EEC3940582
:1017F6005017AF06EFC39405500F74BF2FF8E6FCE1
:1018060074BE2FF8A6040F80EBE478C3F6D222222A
:041816000EBE06D02C
:01181A0022AB
:101B9D00ED2450131313541FFE53061F0EED54075F
:101BAD0090240D93FBFCEF601074C42EF8E65C706E
:101BBD001A74C42EF8E64C800F74C42EF8E65C60DF
:0B1BCD000A74C42EF8EBF456F6D22187
:011BD80022EA
:10239500D222EF600678BDE64DF622EDF478BD5603
:0223A500F6221E
:10222D00EF600A78C4E65D7010E64D800978C4E66B
:0A223D005D6006EDF456F6D2202293
:10195E00E5E430E348E5E45403704230223FC2220E
:10196E00E59630E4045396EF22C2AF78BDE6F5E279
:10197E00E4F5E230080AFF75E2010FBF06F9800DAB
:10198E00E4FF74BE2FF8E6F5E20FBF06F5D2AF7591
:0D199E00E30843E401856869E4F566F5712E
:0119AB002219
:101A4400E5E730E342E5E75403703CE57170383074
:101A54002011C220C2AF75E50278C4E6F5E575E64B
:101A640002801A302121C221C2AF75E50378C5E690
:101A7400F5E508E6F5E508E6F5E575E604D2AF43D5
:081A8400E701E4F566F57122AB
:101F0B000102040810204080FEFDFBF7EFDFBF7FCE
:101F1B00FEFDFBF7EFDFBF7FEFDF000000000000EF
:0C1F2B000000010101010101010103039C
:0E23E500E552901F139322540790240D93226B
:1018BF0020094C12137C300F028041E553701774CE
:1018CF007F2552F8A6650552E552C39412500122A6
:1018DF000553E4F55222747F2552F8E665656002E0
:1018EF00801A0552E552C39412500122121C88929D
:1018FF00083008028006200903121BD91224E022A7
:10227900E4F59CF59BF59A539D057580FF7590FFD4
:0822890075A0FFD2B4D2B5220A
:10226000E4FEFDEE25E0FEED901F0B935F6003435F
:0822700006010DBD08EDAF06EB
:012278002243
:10137C00122279E552C39412505AE552901F2593CC
:10138C00FFC39404504AEF64026045EF70071223C8
:10139C00E5F5808020E552901F2593B401071223B8
:1013AC00E5F59080101223E5B4EF06C2B4D2B580F7
:1013BC0004D2B4C2B512248B85A06512248BE565CA
:1013CC00B5A0F2AFA0122260EFF4F565C20F800653
:0913DC00D20F8002D20F02227927
:101C8800E4FFFE747F2EF8E6FD5FFCED4207EC6092
:101C980023C3135455FDEC54552DFC13135433FD35
:101CA800EC54332DFCC4540FFDEC540F2DD3940188
:091CB8004002D3220EBE12CBC380
:011CC1002200
:0624E000E4F553F5522261
:101BD900E4F54AF54A74AA254AF8E6FF747F254ACE
:101BE900F8E6FEB507028019EE6FFFAD4A120CAA9E
:101BF900500122747F254AF8E6FF74AA254AF8A6FF
:0A1C090007054AE54AC3941240CBD8
:011C130022AE
:040CAA008F4B8D4C93
:100CAE00E4F54E747F254CF8E6F54DE4FF434E8097
:100CBE00E54E25E004F54EC20AE54D30E702D20AB4
:100CCE00E54D25E0F54DE54B20E70EBF0702C322AB
:100CDE00E54B25E0F54B020D89E54B25E0F54BE59F
:100CEE004CC394124002D322057DE57D540FF57D51
:100CFE00E54C33333354F84FFE7493257DF8A60636
:100D0E00E57D1223ECFE200A15E57D30E308EEF4B6
:100D1E00789256F68016EEF4789156F6800EE57DB2
:100D2E0030E304789280027891E64EF6E57D6563B5
:100D3E006007EF64077044C322EFC394075017E5B2
:100D4E004E25E0F54E30D7047E0180027E00EE2562
:100D5E004EF54E0F80E3747F254CF8E54E56F67433
:100D6E007F254CF974AA254CF8E54EF45647F71535
:100D7E007DE57D540FF57DD209C3220FEFC3940894
:060D8E005003020CBBD370
:010D9400223C
:10208000E56330E3091223EC789256FF8009E5639B
:102090001223EC789156FFEF7003C38001D3920AAC
:0120A000221D
:100F010002234DE493A3F8E493A34003F68001F296
:100F110008DFF48029E493A3F85407240CC8C333F1
:100F2100C4540F4420C8834004F456800146F6DFC0
:100F3100E4800B010204081020408090203EE47EF2
:100F4100019360BCA3FF543F30E509541FFEE493B5
:100F5100A360010ECF54C025E060A840B8E493A37C
:100F6100FAE493A3F8E493A3C8C582C8CAC583CAA7
:100F7100F0A3C8C582C8CAC583CADFE9DEE780BE5F
:01205E000081
:10130E00BB010689828A83E0225002E722BBFE02DD
:09131E00E32289828A83E4932210
:10132700BB010CE58229F582E5833AF583E022507B
:1013370006E92582F8E622BBFE06E92582F8E222C5
:0D134700E58229F582E5833AF583E49322DF
:10135400F8BB010DE58229F582E5833AF583E8F0CF
:10136400225006E92582C8F622BBFE05E92582C87B
:02137400F22263
:061376008A838982E47302
:00000001FF
